{
  "_format": "hh-sol-artifact-1",
  "contractName": "PaymentAudit",
  "sourceName": "contracts/PaymentAudit.sol",
  "abi": [
    {
      "anonymous": false,
      "inputs": [
        {
          "indexed": false,
          "internalType": "address",
          "name": "user",
          "type": "address"
        },
        {
          "indexed": false,
          "internalType": "uint256",
          "name": "amount",
          "type": "uint256"
        },
        {
          "indexed": false,
          "internalType": "string",
          "name": "description",
          "type": "string"
        },
        {
          "indexed": false,
          "internalType": "uint256",
          "name": "timestamp",
          "type": "uint256"
        }
      ],
      "name": "PaymentRecorded",
      "type": "event"
    },
    {
      "inputs": [],
      "name": "getAllPayments",
      "outputs": [
        {
          "components": [
            {
              "internalType": "address",
              "name": "user",
              "type": "address"
            },
            {
              "internalType": "uint256",
              "name": "amount",
              "type": "uint256"
            },
            {
              "internalType": "string",
              "name": "description",
              "type": "string"
            },
            {
              "internalType": "uint256",
              "name": "timestamp",
              "type": "uint256"
            }
          ],
          "internalType": "struct PaymentAudit.Record[]",
          "name": "",
          "type": "tuple[]"
        }
      ],
      "stateMutability": "view",
      "type": "function"
    },
    {
      "inputs": [],
      "name": "getPaymentCount",
      "outputs": [
        {
          "internalType": "uint256",
          "name": "",
          "type": "uint256"
        }
      ],
      "stateMutability": "view",
      "type": "function"
    },
    {
      "inputs": [
        {
          "internalType": "uint256",
          "name": "",
          "type": "uint256"
        }
      ],
      "name": "records",
      "outputs": [
        {
          "internalType": "address",
          "name": "user",
          "type": "address"
        },
        {
          "internalType": "uint256",
          "name": "amount",
          "type": "uint256"
        },
        {
          "internalType": "string",
          "name": "description",
          "type": "string"
        },
        {
          "internalType": "uint256",
          "name": "timestamp",
          "type": "uint256"
        }
      ],
      "stateMutability": "view",
      "type": "function"
    },
    {
      "inputs": [
        {
          "internalType": "uint256",
          "name": "amount",
          "type": "uint256"
        },
        {
          "internalType": "string",
          "name": "description",
          "type": "string"
        }
      ],
      "name": "storePayment",
      "outputs": [],
      "stateMutability": "nonpayable",
      "type": "function"
    }
  ],
  "bytecode": "0x6080604052348015600f57600080fd5b50610c538061001f6000396000f3fe608060405234801561001057600080fd5b506004361061004c5760003560e01c8063344610671461005157806373edd5fb14610084578063af32a03f146100a0578063f8defa3c146100be575b600080fd5b61006b6004803603810190610066919061048b565b6100dc565b60405161007b9493929190610598565b60405180910390f35b61009e60048036038101906100999190610719565b6101c4565b005b6100a86102da565b6040516100b59190610775565b60405180910390f35b6100c66102e6565b6040516100d3919061091d565b60405180910390f35b600081815481106100ec57600080fd5b90600052602060002090600402016000915090508060000160009054906101000a900473ffffffffffffffffffffffffffffffffffffffff169080600101549080600201805461013b9061096e565b80601f01602080910402602001604051908101604052809291908181526020018280546101679061096e565b80156101b45780601f10610189576101008083540402835291602001916101b4565b820191906000526020600020905b81548152906001019060200180831161019757829003601f168201915b5050505050908060030154905084565b600060405180608001604052803373ffffffffffffffffffffffffffffffffffffffff16815260200184815260200183815260200142815250908060018154018082558091505060019003906000526020600020906004020160009091909190915060008201518160000160006101000a81548173ffffffffffffffffffffffffffffffffffffffff021916908373ffffffffffffffffffffffffffffffffffffffff16021790555060208201518160010155604082015181600201908161028c9190610b4b565b506060820151816003015550507f96a07dcb9e41c491141f389a80f6f3d38bedf04609891a11cc3470b1e6667d87338383426040516102ce9493929190610598565b60405180910390a15050565b60008080549050905090565b60606000805480602002602001604051908101604052809291908181526020016000905b8282101561043857838290600052602060002090600402016040518060800160405290816000820160009054906101000a900473ffffffffffffffffffffffffffffffffffffffff1673ffffffffffffffffffffffffffffffffffffffff1673ffffffffffffffffffffffffffffffffffffffff1681526020016001820154815260200160028201805461039d9061096e565b80601f01602080910402602001604051908101604052809291908181526020018280546103c99061096e565b80156104165780601f106103eb57610100808354040283529160200191610416565b820191906000526020600020905b8154815290600101906020018083116103f957829003601f168201915b505050505081526020016003820154815250508152602001906001019061030a565b50505050905090565b6000604051905090565b600080fd5b600080fd5b6000819050919050565b61046881610455565b811461047357600080fd5b50565b6000813590506104858161045f565b92915050565b6000602082840312156104a1576104a061044b565b5b60006104af84828501610476565b91505092915050565b600073ffffffffffffffffffffffffffffffffffffffff82169050919050565b60006104e3826104b8565b9050919050565b6104f3816104d8565b82525050565b61050281610455565b82525050565b600081519050919050565b600082825260208201905092915050565b60005b83811015610542578082015181840152602081019050610527565b60008484015250505050565b6000601f19601f8301169050919050565b600061056a82610508565b6105748185610513565b9350610584818560208601610524565b61058d8161054e565b840191505092915050565b60006080820190506105ad60008301876104ea565b6105ba60208301866104f9565b81810360408301526105cc818561055f565b90506105db60608301846104f9565b95945050505050565b600080fd5b600080fd5b7f4e487b7100000000000000000000000000000000000000000000000000000000600052604160045260246000fd5b6106268261054e565b810181811067ffffffffffffffff82111715610645576106446105ee565b5b80604052505050565b6000610658610441565b9050610664828261061d565b919050565b600067ffffffffffffffff821115610684576106836105ee565b5b61068d8261054e565b9050602081019050919050565b82818337600083830152505050565b60006106bc6106b784610669565b61064e565b9050828152602081018484840111156106d8576106d76105e9565b5b6106e384828561069a565b509392505050565b600082601f830112610700576106ff6105e4565b5b81356107108482602086016106a9565b91505092915050565b600080604083850312156107305761072f61044b565b5b600061073e85828601610476565b925050602083013567ffffffffffffffff81111561075f5761075e610450565b5b61076b858286016106eb565b9150509250929050565b600060208201905061078a60008301846104f9565b92915050565b600081519050919050565b600082825260208201905092915050565b6000819050602082019050919050565b6107c5816104d8565b82525050565b6107d481610455565b82525050565b600082825260208201905092915050565b60006107f682610508565b61080081856107da565b9350610810818560208601610524565b6108198161054e565b840191505092915050565b600060808301600083015161083c60008601826107bc565b50602083015161084f60208601826107cb565b506040830151848203604086015261086782826107eb565b915050606083015161087c60608601826107cb565b508091505092915050565b60006108938383610824565b905092915050565b6000602082019050919050565b60006108b382610790565b6108bd818561079b565b9350836020820285016108cf856107ac565b8060005b8581101561090b57848403895281516108ec8582610887565b94506108f78361089b565b925060208a019950506001810190506108d3565b50829750879550505050505092915050565b6000602082019050818103600083015261093781846108a8565b905092915050565b7f4e487b7100000000000000000000000000000000000000000000000000000000600052602260045260246000fd5b6000600282049050600182168061098657607f821691505b6020821081036109995761099861093f565b5b50919050565b60008190508160005260206000209050919050565b60006020601f8301049050919050565b600082821b905092915050565b600060088302610a017fffffffffffffffffffffffffffffffffffffffffffffffffffffffffffffffff826109c4565b610a0b86836109c4565b95508019841693508086168417925050509392505050565b6000819050919050565b6000610a48610a43610a3e84610455565b610a23565b610455565b9050919050565b6000819050919050565b610a6283610a2d565b610a76610a6e82610a4f565b8484546109d1565b825550505050565b600090565b610a8b610a7e565b610a96818484610a59565b505050565b5b81811015610aba57610aaf600082610a83565b600181019050610a9c565b5050565b601f821115610aff57610ad08161099f565b610ad9846109b4565b81016020851015610ae8578190505b610afc610af4856109b4565b830182610a9b565b50505b505050565b600082821c905092915050565b6000610b2260001984600802610b04565b1980831691505092915050565b6000610b3b8383610b11565b9150826002028217905092915050565b610b5482610508565b67ffffffffffffffff811115610b6d57610b6c6105ee565b5b610b77825461096e565b610b82828285610abe565b600060209050601f831160018114610bb55760008415610ba3578287015190505b610bad8582610b2f565b865550610c15565b601f198416610bc38661099f565b60005b82811015610beb57848901518255600182019150602085019450602081019050610bc6565b86831015610c085784890151610c04601f891682610b11565b8355505b6001600288020188555050505b50505050505056fea264697066735822122055a003340c2ffb94110f1918de7a26b391fe87f8d029ce95fd3a8d2d338aca0164736f6c634300081b0033",
  "linkReferences": {},
  "deployedLinkReferences": {}
}